{
  "_format": "hh-sol-artifact-1",
  "contractName": "Exchange",
  "sourceName": "contracts/Exchange.sol",
  "abi": [
    {
      "inputs": [
        {
          "internalType": "address",
          "name": "_token",
          "type": "address"
        },
        {
          "internalType": "string",
          "name": "_lpTokenName",
          "type": "string"
        },
        {
          "internalType": "string",
          "name": "_lpTokenSymbol",
          "type": "string"
        }
      ],
      "stateMutability": "nonpayable",
      "type": "constructor"
    },
    {
      "anonymous": false,
      "inputs": [
        {
          "indexed": true,
          "internalType": "address",
          "name": "owner",
          "type": "address"
        },
        {
          "indexed": true,
          "internalType": "address",
          "name": "spender",
          "type": "address"
        },
        {
          "indexed": false,
          "internalType": "uint256",
          "name": "value",
          "type": "uint256"
        }
      ],
      "name": "Approval",
      "type": "event"
    },
    {
      "anonymous": false,
      "inputs": [
        {
          "indexed": true,
          "internalType": "address",
          "name": "from",
          "type": "address"
        },
        {
          "indexed": true,
          "internalType": "address",
          "name": "to",
          "type": "address"
        },
        {
          "indexed": false,
          "internalType": "uint256",
          "name": "value",
          "type": "uint256"
        }
      ],
      "name": "Transfer",
      "type": "event"
    },
    {
      "inputs": [
        {
          "internalType": "uint256",
          "name": "_tokenAmount",
          "type": "uint256"
        }
      ],
      "name": "addLiquidity",
      "outputs": [
        {
          "internalType": "uint256",
          "name": "",
          "type": "uint256"
        }
      ],
      "stateMutability": "payable",
      "type": "function"
    },
    {
      "inputs": [
        {
          "internalType": "address",
          "name": "owner",
          "type": "address"
        },
        {
          "internalType": "address",
          "name": "spender",
          "type": "address"
        }
      ],
      "name": "allowance",
      "outputs": [
        {
          "internalType": "uint256",
          "name": "",
          "type": "uint256"
        }
      ],
      "stateMutability": "view",
      "type": "function"
    },
    {
      "inputs": [
        {
          "internalType": "address",
          "name": "spender",
          "type": "address"
        },
        {
          "internalType": "uint256",
          "name": "amount",
          "type": "uint256"
        }
      ],
      "name": "approve",
      "outputs": [
        {
          "internalType": "bool",
          "name": "",
          "type": "bool"
        }
      ],
      "stateMutability": "nonpayable",
      "type": "function"
    },
    {
      "inputs": [
        {
          "internalType": "address",
          "name": "account",
          "type": "address"
        }
      ],
      "name": "balanceOf",
      "outputs": [
        {
          "internalType": "uint256",
          "name": "",
          "type": "uint256"
        }
      ],
      "stateMutability": "view",
      "type": "function"
    },
    {
      "inputs": [],
      "name": "decimals",
      "outputs": [
        {
          "internalType": "uint8",
          "name": "",
          "type": "uint8"
        }
      ],
      "stateMutability": "view",
      "type": "function"
    },
    {
      "inputs": [
        {
          "internalType": "address",
          "name": "spender",
          "type": "address"
        },
        {
          "internalType": "uint256",
          "name": "subtractedValue",
          "type": "uint256"
        }
      ],
      "name": "decreaseAllowance",
      "outputs": [
        {
          "internalType": "bool",
          "name": "",
          "type": "bool"
        }
      ],
      "stateMutability": "nonpayable",
      "type": "function"
    },
    {
      "inputs": [
        {
          "internalType": "uint256",
          "name": "_minTokens",
          "type": "uint256"
        }
      ],
      "name": "ethToTokenSwap",
      "outputs": [],
      "stateMutability": "payable",
      "type": "function"
    },
    {
      "inputs": [
        {
          "internalType": "uint256",
          "name": "_minTokens",
          "type": "uint256"
        },
        {
          "internalType": "address",
          "name": "_recipient",
          "type": "address"
        }
      ],
      "name": "ethToTokenTransfer",
      "outputs": [],
      "stateMutability": "payable",
      "type": "function"
    },
    {
      "inputs": [],
      "name": "factoryAddress",
      "outputs": [
        {
          "internalType": "address",
          "name": "",
          "type": "address"
        }
      ],
      "stateMutability": "view",
      "type": "function"
    },
    {
      "inputs": [
        {
          "internalType": "uint256",
          "name": "_tokenSold",
          "type": "uint256"
        }
      ],
      "name": "getEthAmount",
      "outputs": [
        {
          "internalType": "uint256",
          "name": "",
          "type": "uint256"
        }
      ],
      "stateMutability": "view",
      "type": "function"
    },
    {
      "inputs": [
        {
          "internalType": "uint256",
          "name": "_amount",
          "type": "uint256"
        }
      ],
      "name": "getEthAndTokenByToken",
      "outputs": [
        {
          "internalType": "uint256",
          "name": "",
          "type": "uint256"
        },
        {
          "internalType": "uint256",
          "name": "",
          "type": "uint256"
        }
      ],
      "stateMutability": "view",
      "type": "function"
    },
    {
      "inputs": [],
      "name": "getReserve",
      "outputs": [
        {
          "internalType": "uint256",
          "name": "",
          "type": "uint256"
        }
      ],
      "stateMutability": "view",
      "type": "function"
    },
    {
      "inputs": [
        {
          "internalType": "uint256",
          "name": "_ethSold",
          "type": "uint256"
        }
      ],
      "name": "getTokenAmount",
      "outputs": [
        {
          "internalType": "uint256",
          "name": "",
          "type": "uint256"
        }
      ],
      "stateMutability": "view",
      "type": "function"
    },
    {
      "inputs": [
        {
          "internalType": "address",
          "name": "_neededTokenAddress",
          "type": "address"
        },
        {
          "internalType": "uint256",
          "name": "_tokenAmount",
          "type": "uint256"
        }
      ],
      "name": "getTokenAmountForTokenAmount",
      "outputs": [
        {
          "internalType": "uint256",
          "name": "",
          "type": "uint256"
        }
      ],
      "stateMutability": "view",
      "type": "function"
    },
    {
      "inputs": [
        {
          "internalType": "uint256",
          "name": "_ethAmount",
          "type": "uint256"
        }
      ],
      "name": "getTokenAmountWhenAddingLiquidity",
      "outputs": [
        {
          "internalType": "uint256",
          "name": "",
          "type": "uint256"
        }
      ],
      "stateMutability": "view",
      "type": "function"
    },
    {
      "inputs": [
        {
          "internalType": "address",
          "name": "spender",
          "type": "address"
        },
        {
          "internalType": "uint256",
          "name": "addedValue",
          "type": "uint256"
        }
      ],
      "name": "increaseAllowance",
      "outputs": [
        {
          "internalType": "bool",
          "name": "",
          "type": "bool"
        }
      ],
      "stateMutability": "nonpayable",
      "type": "function"
    },
    {
      "inputs": [],
      "name": "name",
      "outputs": [
        {
          "internalType": "string",
          "name": "",
          "type": "string"
        }
      ],
      "stateMutability": "view",
      "type": "function"
    },
    {
      "inputs": [
        {
          "internalType": "uint256",
          "name": "_amount",
          "type": "uint256"
        }
      ],
      "name": "removeLiquidity",
      "outputs": [
        {
          "internalType": "uint256",
          "name": "",
          "type": "uint256"
        },
        {
          "internalType": "uint256",
          "name": "",
          "type": "uint256"
        }
      ],
      "stateMutability": "nonpayable",
      "type": "function"
    },
    {
      "inputs": [],
      "name": "symbol",
      "outputs": [
        {
          "internalType": "string",
          "name": "",
          "type": "string"
        }
      ],
      "stateMutability": "view",
      "type": "function"
    },
    {
      "inputs": [],
      "name": "tokenAddress",
      "outputs": [
        {
          "internalType": "address",
          "name": "",
          "type": "address"
        }
      ],
      "stateMutability": "view",
      "type": "function"
    },
    {
      "inputs": [
        {
          "internalType": "uint256",
          "name": "_tokensSold",
          "type": "uint256"
        },
        {
          "internalType": "uint256",
          "name": "_minEth",
          "type": "uint256"
        }
      ],
      "name": "tokenToEthSwap",
      "outputs": [],
      "stateMutability": "nonpayable",
      "type": "function"
    },
    {
      "inputs": [
        {
          "internalType": "uint256",
          "name": "_tokensSold",
          "type": "uint256"
        },
        {
          "internalType": "uint256",
          "name": "_minTokensBought",
          "type": "uint256"
        },
        {
          "internalType": "address",
          "name": "_tokenAddress",
          "type": "address"
        }
      ],
      "name": "tokenToTokenSwap",
      "outputs": [],
      "stateMutability": "nonpayable",
      "type": "function"
    },
    {
      "inputs": [],
      "name": "totalSupply",
      "outputs": [
        {
          "internalType": "uint256",
          "name": "",
          "type": "uint256"
        }
      ],
      "stateMutability": "view",
      "type": "function"
    },
    {
      "inputs": [
        {
          "internalType": "address",
          "name": "to",
          "type": "address"
        },
        {
          "internalType": "uint256",
          "name": "amount",
          "type": "uint256"
        }
      ],
      "name": "transfer",
      "outputs": [
        {
          "internalType": "bool",
          "name": "",
          "type": "bool"
        }
      ],
      "stateMutability": "nonpayable",
      "type": "function"
    },
    {
      "inputs": [
        {
          "internalType": "address",
          "name": "from",
          "type": "address"
        },
        {
          "internalType": "address",
          "name": "to",
          "type": "address"
        },
        {
          "internalType": "uint256",
          "name": "amount",
          "type": "uint256"
        }
      ],
      "name": "transferFrom",
      "outputs": [
        {
          "internalType": "bool",
          "name": "",
          "type": "bool"
        }
      ],
      "stateMutability": "nonpayable",
      "type": "function"
    }
  ],
  "bytecode": "0x60806040523480156200001157600080fd5b5060405162003686380380620036868339818101604052810190620000379190620002a4565b81818160039080519060200190620000519291906200016b565b5080600490805190602001906200006a9291906200016b565b505050600073ffffffffffffffffffffffffffffffffffffffff168373ffffffffffffffffffffffffffffffffffffffff161415620000e0576040517f08c379a0000000000000000000000000000000000000000000000000000000008152600401620000d79062000353565b60405180910390fd5b82600560006101000a81548173ffffffffffffffffffffffffffffffffffffffff021916908373ffffffffffffffffffffffffffffffffffffffff16021790555033600660006101000a81548173ffffffffffffffffffffffffffffffffffffffff021916908373ffffffffffffffffffffffffffffffffffffffff1602179055505050506200056d565b82805462000179906200044f565b90600052602060002090601f0160209004810192826200019d5760008555620001e9565b82601f10620001b857805160ff1916838001178555620001e9565b82800160010185558215620001e9579182015b82811115620001e8578251825591602001919060010190620001cb565b5b509050620001f89190620001fc565b5090565b5b8082111562000217576000816000905550600101620001fd565b5090565b6000620002326200022c846200039e565b62000375565b9050828152602081018484840111156200024b57600080fd5b6200025884828562000419565b509392505050565b600081519050620002718162000553565b92915050565b600082601f8301126200028957600080fd5b81516200029b8482602086016200021b565b91505092915050565b600080600060608486031215620002ba57600080fd5b6000620002ca8682870162000260565b935050602084015167ffffffffffffffff811115620002e857600080fd5b620002f68682870162000277565b925050604084015167ffffffffffffffff8111156200031457600080fd5b620003228682870162000277565b9150509250925092565b60006200033b601583620003d4565b915062000348826200052a565b602082019050919050565b600060208201905081810360008301526200036e816200032c565b9050919050565b60006200038162000394565b90506200038f828262000485565b919050565b6000604051905090565b600067ffffffffffffffff821115620003bc57620003bb620004ea565b5b620003c78262000519565b9050602081019050919050565b600082825260208201905092915050565b6000620003f282620003f9565b9050919050565b600073ffffffffffffffffffffffffffffffffffffffff82169050919050565b60005b83811015620004395780820151818401526020810190506200041c565b8381111562000449576000848401525b50505050565b600060028204905060018216806200046857607f821691505b602082108114156200047f576200047e620004bb565b5b50919050565b620004908262000519565b810181811067ffffffffffffffff82111715620004b257620004b1620004ea565b5b80604052505050565b7f4e487b7100000000000000000000000000000000000000000000000000000000600052602260045260246000fd5b7f4e487b7100000000000000000000000000000000000000000000000000000000600052604160045260246000fd5b6000601f19601f8301169050919050565b7f496e76616c696420746f6b656e20616464726573730000000000000000000000600082015250565b6200055e81620003e5565b81146200056a57600080fd5b50565b613109806200057d6000396000f3fe6080604052600436106101665760003560e01c80638fc7a25d116100d1578063a9059cbb1161008a578063dd62ed3e11610064578063dd62ed3e146105c2578063e0486c8a146105ff578063f7a7e32414610628578063f979dcd71461065157610166565b8063a9059cbb1461050b578063c2507ac114610548578063ccaf76321461058557610166565b80638fc7a25d146103d257806395d89b411461040f578063966dae0e1461043a5780639c8f9f23146104655780639d76ea58146104a3578063a457c2d7146104ce57610166565b80633950935111610123578063395093511461028257806351a660ff146102bf57806351c6590a146102fc57806359bf5d391461032c57806370a08231146103575780637ccd4a4d1461039457610166565b806306fdde031461016b578063095ea7b31461019657806318160ddd146101d357806323b872dd146101fe578063313ce5671461023b578063389d9a4014610266575b600080fd5b34801561017757600080fd5b5061018061066d565b60405161018d9190612709565b60405180910390f35b3480156101a257600080fd5b506101bd60048036038101906101b8919061220a565b6106ff565b6040516101ca91906126ee565b60405180910390f35b3480156101df57600080fd5b506101e8610722565b6040516101f5919061296b565b60405180910390f35b34801561020a57600080fd5b50610225600480360381019061022091906121bb565b61072c565b60405161023291906126ee565b60405180910390f35b34801561024757600080fd5b5061025061075b565b60405161025d91906129d8565b60405180910390f35b610280600480360381019061027b91906122c1565b610764565b005b34801561028e57600080fd5b506102a960048036038101906102a4919061220a565b610772565b6040516102b691906126ee565b60405180910390f35b3480156102cb57600080fd5b506102e660048036038101906102e1919061220a565b61081c565b6040516102f3919061296b565b60405180910390f35b6103166004803603810190610311919061226f565b610a66565b604051610323919061296b565b60405180910390f35b34801561033857600080fd5b50610341610cb2565b60405161034e919061296b565b60405180910390f35b34801561036357600080fd5b5061037e6004803603810190610379919061212d565b610d64565b60405161038b919061296b565b60405180910390f35b3480156103a057600080fd5b506103bb60048036038101906103b6919061226f565b610dac565b6040516103c99291906129af565b60405180910390f35b3480156103de57600080fd5b506103f960048036038101906103f4919061226f565b610e07565b604051610406919061296b565b60405180910390f35b34801561041b57600080fd5b50610424610e6a565b6040516104319190612709565b60405180910390f35b34801561044657600080fd5b5061044f610efc565b60405161045c9190612673565b60405180910390f35b34801561047157600080fd5b5061048c6004803603810190610487919061226f565b610f22565b60405161049a9291906129af565b60405180910390f35b3480156104af57600080fd5b506104b8611086565b6040516104c59190612673565b60405180910390f35b3480156104da57600080fd5b506104f560048036038101906104f0919061220a565b6110ac565b60405161050291906126ee565b60405180910390f35b34801561051757600080fd5b50610532600480360381019061052d919061220a565b611196565b60405161053f91906126ee565b60405180910390f35b34801561055457600080fd5b5061056f600480360381019061056a919061226f565b6111b9565b60405161057c919061296b565b60405180910390f35b34801561059157600080fd5b506105ac60048036038101906105a7919061226f565b61121c565b6040516105b9919061296b565b60405180910390f35b3480156105ce57600080fd5b506105e960048036038101906105e4919061217f565b611254565b6040516105f6919061296b565b60405180910390f35b34801561060b57600080fd5b50610626600480360381019061062191906122fd565b6112db565b005b34801561063457600080fd5b5061064f600480360381019061064a9190612339565b611438565b005b61066b6004803603810190610666919061226f565b6116d2565b005b60606003805461067c90612bac565b80601f01602080910402602001604051908101604052809291908181526020018280546106a890612bac565b80156106f55780601f106106ca576101008083540402835291602001916106f5565b820191906000526020600020905b8154815290600101906020018083116106d857829003601f168201915b5050505050905090565b60008061070a6116df565b90506107178185856116e7565b600191505092915050565b6000600254905090565b6000806107376116df565b90506107448582856118b2565b61074f85858561193e565b60019150509392505050565b60006012905090565b61076e8282611bbf565b5050565b60008061077d6116df565b9050610811818585600160008673ffffffffffffffffffffffffffffffffffffffff1673ffffffffffffffffffffffffffffffffffffffff16815260200190815260200160002060008973ffffffffffffffffffffffffffffffffffffffff1673ffffffffffffffffffffffffffffffffffffffff1681526020019081526020016000205461080c9190612a0f565b6116e7565b600191505092915050565b6000808211610860576040517f08c379a00000000000000000000000000000000000000000000000000000000081526004016108579061280b565b60405180910390fd5b600061086a610cb2565b90506000610879848347611cde565b90506000600660009054906101000a900473ffffffffffffffffffffffffffffffffffffffff1673ffffffffffffffffffffffffffffffffffffffff166306f2bf62876040518263ffffffff1660e01b81526004016108d89190612673565b60206040518083038186803b1580156108f057600080fd5b505afa158015610904573d6000803e3d6000fd5b505050506040513d601f19601f820116820180604052508101906109289190612156565b90503073ffffffffffffffffffffffffffffffffffffffff168173ffffffffffffffffffffffffffffffffffffffff16141580156109935750600073ffffffffffffffffffffffffffffffffffffffff168173ffffffffffffffffffffffffffffffffffffffff1614155b6109d2576040517f08c379a00000000000000000000000000000000000000000000000000000000081526004016109c99061284b565b60405180910390fd5b8073ffffffffffffffffffffffffffffffffffffffff1663c2507ac1836040518263ffffffff1660e01b8152600401610a0b919061296b565b60206040518083038186803b158015610a2357600080fd5b505afa158015610a37573d6000803e3d6000fd5b505050506040513d601f19601f82011682018060405250810190610a5b9190612298565b935050505092915050565b600080610a71610cb2565b1415610b47576000600560009054906101000a900473ffffffffffffffffffffffffffffffffffffffff1690508073ffffffffffffffffffffffffffffffffffffffff166323b872dd3330866040518463ffffffff1660e01b8152600401610adb9392919061268e565b602060405180830381600087803b158015610af557600080fd5b505af1158015610b09573d6000803e3d6000fd5b505050506040513d601f19601f82011682018060405250810190610b2d9190612246565b506000479050610b3d3382611d83565b8092505050610cad565b60003447610b559190612af0565b90506000610b61610cb2565b90506000828234610b729190612a96565b610b7c9190612a65565b905080851015610bc1576040517f08c379a0000000000000000000000000000000000000000000000000000000008152600401610bb8906128cb565b60405180910390fd5b6000600560009054906101000a900473ffffffffffffffffffffffffffffffffffffffff1690508073ffffffffffffffffffffffffffffffffffffffff166323b872dd3330856040518463ffffffff1660e01b8152600401610c259392919061268e565b602060405180830381600087803b158015610c3f57600080fd5b505af1158015610c53573d6000803e3d6000fd5b505050506040513d601f19601f82011682018060405250810190610c779190612246565b50600084610c83610722565b34610c8e9190612a96565b610c989190612a65565b9050610ca43382611d83565b80955050505050505b919050565b6000600560009054906101000a900473ffffffffffffffffffffffffffffffffffffffff1673ffffffffffffffffffffffffffffffffffffffff166370a08231306040518263ffffffff1660e01b8152600401610d0f9190612673565b60206040518083038186803b158015610d2757600080fd5b505afa158015610d3b573d6000803e3d6000fd5b505050506040513d601f19601f82011682018060405250810190610d5f9190612298565b905090565b60008060008373ffffffffffffffffffffffffffffffffffffffff1673ffffffffffffffffffffffffffffffffffffffff168152602001908152602001600020549050919050565b6000806000610db9610722565b8447610dc59190612a96565b610dcf9190612a65565b90506000610ddb610722565b85610de4610cb2565b610dee9190612a96565b610df89190612a65565b90508181935093505050915091565b6000808211610e4b576040517f08c379a0000000000000000000000000000000000000000000000000000000008152600401610e429061282b565b60405180910390fd5b6000610e55610cb2565b9050610e62838247611cde565b915050919050565b606060048054610e7990612bac565b80601f0160208091040260200160405190810160405280929190818152602001828054610ea590612bac565b8015610ef25780601f10610ec757610100808354040283529160200191610ef2565b820191906000526020600020905b815481529060010190602001808311610ed557829003601f168201915b5050505050905090565b600660009054906101000a900473ffffffffffffffffffffffffffffffffffffffff1681565b60008060008311610f68576040517f08c379a0000000000000000000000000000000000000000000000000000000008152600401610f5f9061278b565b60405180910390fd5b600080610f7485610dac565b91509150610f823386611ee3565b3373ffffffffffffffffffffffffffffffffffffffff166108fc839081150290604051600060405180830381858888f19350505050158015610fc8573d6000803e3d6000fd5b50600560009054906101000a900473ffffffffffffffffffffffffffffffffffffffff1673ffffffffffffffffffffffffffffffffffffffff1663a9059cbb33836040518363ffffffff1660e01b81526004016110269291906126c5565b602060405180830381600087803b15801561104057600080fd5b505af1158015611054573d6000803e3d6000fd5b505050506040513d601f19601f820116820180604052508101906110789190612246565b508181935093505050915091565b600560009054906101000a900473ffffffffffffffffffffffffffffffffffffffff1681565b6000806110b76116df565b90506000600160008373ffffffffffffffffffffffffffffffffffffffff1673ffffffffffffffffffffffffffffffffffffffff16815260200190815260200160002060008673ffffffffffffffffffffffffffffffffffffffff1673ffffffffffffffffffffffffffffffffffffffff1681526020019081526020016000205490508381101561117d576040517f08c379a00000000000000000000000000000000000000000000000000000000081526004016111749061292b565b60405180910390fd5b61118a82868684036116e7565b60019250505092915050565b6000806111a16116df565b90506111ae81858561193e565b600191505092915050565b60008082116111fd576040517f08c379a00000000000000000000000000000000000000000000000000000000081526004016111f4906127cb565b60405180910390fd5b6000611207610cb2565b9050611214834783611cde565b915050919050565b600080479050600061122c610cb2565b9050600082858361123d9190612a96565b6112479190612a65565b9050809350505050919050565b6000600160008473ffffffffffffffffffffffffffffffffffffffff1673ffffffffffffffffffffffffffffffffffffffff16815260200190815260200160002060008373ffffffffffffffffffffffffffffffffffffffff1673ffffffffffffffffffffffffffffffffffffffff16815260200190815260200160002054905092915050565b60006112e5610cb2565b905060006112f4848347611cde565b905082811015611339576040517f08c379a00000000000000000000000000000000000000000000000000000000081526004016113309061288b565b60405180910390fd5b600560009054906101000a900473ffffffffffffffffffffffffffffffffffffffff1673ffffffffffffffffffffffffffffffffffffffff166323b872dd3330876040518463ffffffff1660e01b81526004016113989392919061268e565b602060405180830381600087803b1580156113b257600080fd5b505af11580156113c6573d6000803e3d6000fd5b505050506040513d601f19601f820116820180604052508101906113ea9190612246565b503373ffffffffffffffffffffffffffffffffffffffff166108fc829081150290604051600060405180830381858888f19350505050158015611431573d6000803e3d6000fd5b5050505050565b6000600660009054906101000a900473ffffffffffffffffffffffffffffffffffffffff1673ffffffffffffffffffffffffffffffffffffffff166306f2bf62836040518263ffffffff1660e01b81526004016114959190612673565b60206040518083038186803b1580156114ad57600080fd5b505afa1580156114c1573d6000803e3d6000fd5b505050506040513d601f19601f820116820180604052508101906114e59190612156565b90503073ffffffffffffffffffffffffffffffffffffffff168173ffffffffffffffffffffffffffffffffffffffff16141580156115505750600073ffffffffffffffffffffffffffffffffffffffff168173ffffffffffffffffffffffffffffffffffffffff1614155b61158f576040517f08c379a00000000000000000000000000000000000000000000000000000000081526004016115869061284b565b60405180910390fd5b6000611599610cb2565b905060006115a8868347611cde565b9050600560009054906101000a900473ffffffffffffffffffffffffffffffffffffffff1673ffffffffffffffffffffffffffffffffffffffff166323b872dd3330896040518463ffffffff1660e01b81526004016116099392919061268e565b602060405180830381600087803b15801561162357600080fd5b505af1158015611637573d6000803e3d6000fd5b505050506040513d601f19601f8201168201806040525081019061165b9190612246565b508273ffffffffffffffffffffffffffffffffffffffff1663389d9a408287336040518463ffffffff1660e01b8152600401611698929190612986565b6000604051808303818588803b1580156116b157600080fd5b505af11580156116c5573d6000803e3d6000fd5b5050505050505050505050565b6116dc8133611bbf565b50565b600033905090565b600073ffffffffffffffffffffffffffffffffffffffff168373ffffffffffffffffffffffffffffffffffffffff161415611757576040517f08c379a000000000000000000000000000000000000000000000000000000000815260040161174e906128eb565b60405180910390fd5b600073ffffffffffffffffffffffffffffffffffffffff168273ffffffffffffffffffffffffffffffffffffffff1614156117c7576040517f08c379a00000000000000000000000000000000000000000000000000000000081526004016117be9061276b565b60405180910390fd5b80600160008573ffffffffffffffffffffffffffffffffffffffff1673ffffffffffffffffffffffffffffffffffffffff16815260200190815260200160002060008473ffffffffffffffffffffffffffffffffffffffff1673ffffffffffffffffffffffffffffffffffffffff168152602001908152602001600020819055508173ffffffffffffffffffffffffffffffffffffffff168373ffffffffffffffffffffffffffffffffffffffff167f8c5be1e5ebec7d5bd14f71427d1e84f3dd0314c0f7b2291e5b200ac8c7c3b925836040516118a5919061296b565b60405180910390a3505050565b60006118be8484611254565b90507fffffffffffffffffffffffffffffffffffffffffffffffffffffffffffffffff8114611938578181101561192a576040517f08c379a0000000000000000000000000000000000000000000000000000000008152600401611921906127ab565b60405180910390fd5b61193784848484036116e7565b5b50505050565b600073ffffffffffffffffffffffffffffffffffffffff168373ffffffffffffffffffffffffffffffffffffffff1614156119ae576040517f08c379a00000000000000000000000000000000000000000000000000000000081526004016119a5906128ab565b60405180910390fd5b600073ffffffffffffffffffffffffffffffffffffffff168273ffffffffffffffffffffffffffffffffffffffff161415611a1e576040517f08c379a0000000000000000000000000000000000000000000000000000000008152600401611a159061272b565b60405180910390fd5b611a298383836120ba565b60008060008573ffffffffffffffffffffffffffffffffffffffff1673ffffffffffffffffffffffffffffffffffffffff16815260200190815260200160002054905081811015611aaf576040517f08c379a0000000000000000000000000000000000000000000000000000000008152600401611aa6906127eb565b60405180910390fd5b8181036000808673ffffffffffffffffffffffffffffffffffffffff1673ffffffffffffffffffffffffffffffffffffffff16815260200190815260200160002081905550816000808573ffffffffffffffffffffffffffffffffffffffff1673ffffffffffffffffffffffffffffffffffffffff1681526020019081526020016000206000828254611b429190612a0f565b925050819055508273ffffffffffffffffffffffffffffffffffffffff168473ffffffffffffffffffffffffffffffffffffffff167fddf252ad1be2c89b69c2b068fc378daa952ba7f163c4a11628f55a4df523b3ef84604051611ba6919061296b565b60405180910390a3611bb98484846120bf565b50505050565b6000611bc9610cb2565b90506000611be3343447611bdd9190612af0565b84611cde565b905083811015611c28576040517f08c379a0000000000000000000000000000000000000000000000000000000008152600401611c1f9061288b565b60405180910390fd5b600560009054906101000a900473ffffffffffffffffffffffffffffffffffffffff1673ffffffffffffffffffffffffffffffffffffffff1663a9059cbb84836040518363ffffffff1660e01b8152600401611c859291906126c5565b602060405180830381600087803b158015611c9f57600080fd5b505af1158015611cb3573d6000803e3d6000fd5b505050506040513d601f19601f82011682018060405250810190611cd79190612246565b5050505050565b60008083118015611cef5750600082115b611d2e576040517f08c379a0000000000000000000000000000000000000000000000000000000008152600401611d259061290b565b60405180910390fd5b6000606385611d3d9190612a96565b905060008382611d4d9190612a96565b9050600082606487611d5f9190612a96565b611d699190612a0f565b90508082611d779190612a65565b93505050509392505050565b600073ffffffffffffffffffffffffffffffffffffffff168273ffffffffffffffffffffffffffffffffffffffff161415611df3576040517f08c379a0000000000000000000000000000000000000000000000000000000008152600401611dea9061294b565b60405180910390fd5b611dff600083836120ba565b8060026000828254611e119190612a0f565b92505081905550806000808473ffffffffffffffffffffffffffffffffffffffff1673ffffffffffffffffffffffffffffffffffffffff1681526020019081526020016000206000828254611e669190612a0f565b925050819055508173ffffffffffffffffffffffffffffffffffffffff16600073ffffffffffffffffffffffffffffffffffffffff167fddf252ad1be2c89b69c2b068fc378daa952ba7f163c4a11628f55a4df523b3ef83604051611ecb919061296b565b60405180910390a3611edf600083836120bf565b5050565b600073ffffffffffffffffffffffffffffffffffffffff168273ffffffffffffffffffffffffffffffffffffffff161415611f53576040517f08c379a0000000000000000000000000000000000000000000000000000000008152600401611f4a9061286b565b60405180910390fd5b611f5f826000836120ba565b60008060008473ffffffffffffffffffffffffffffffffffffffff1673ffffffffffffffffffffffffffffffffffffffff16815260200190815260200160002054905081811015611fe5576040517f08c379a0000000000000000000000000000000000000000000000000000000008152600401611fdc9061274b565b60405180910390fd5b8181036000808573ffffffffffffffffffffffffffffffffffffffff1673ffffffffffffffffffffffffffffffffffffffff16815260200190815260200160002081905550816002600082825461203c9190612af0565b92505081905550600073ffffffffffffffffffffffffffffffffffffffff168373ffffffffffffffffffffffffffffffffffffffff167fddf252ad1be2c89b69c2b068fc378daa952ba7f163c4a11628f55a4df523b3ef846040516120a1919061296b565b60405180910390a36120b5836000846120bf565b505050565b505050565b505050565b6000813590506120d38161308e565b92915050565b6000815190506120e88161308e565b92915050565b6000815190506120fd816130a5565b92915050565b600081359050612112816130bc565b92915050565b600081519050612127816130bc565b92915050565b60006020828403121561213f57600080fd5b600061214d848285016120c4565b91505092915050565b60006020828403121561216857600080fd5b6000612176848285016120d9565b91505092915050565b6000806040838503121561219257600080fd5b60006121a0858286016120c4565b92505060206121b1858286016120c4565b9150509250929050565b6000806000606084860312156121d057600080fd5b60006121de868287016120c4565b93505060206121ef868287016120c4565b925050604061220086828701612103565b9150509250925092565b6000806040838503121561221d57600080fd5b600061222b858286016120c4565b925050602061223c85828601612103565b9150509250929050565b60006020828403121561225857600080fd5b6000612266848285016120ee565b91505092915050565b60006020828403121561228157600080fd5b600061228f84828501612103565b91505092915050565b6000602082840312156122aa57600080fd5b60006122b884828501612118565b91505092915050565b600080604083850312156122d457600080fd5b60006122e285828601612103565b92505060206122f3858286016120c4565b9150509250929050565b6000806040838503121561231057600080fd5b600061231e85828601612103565b925050602061232f85828601612103565b9150509250929050565b60008060006060848603121561234e57600080fd5b600061235c86828701612103565b935050602061236d86828701612103565b925050604061237e868287016120c4565b9150509250925092565b61239181612b24565b82525050565b6123a081612b36565b82525050565b60006123b1826129f3565b6123bb81856129fe565b93506123cb818560208601612b79565b6123d481612c6b565b840191505092915050565b60006123ec6023836129fe565b91506123f782612c7c565b604082019050919050565b600061240f6022836129fe565b915061241a82612ccb565b604082019050919050565b60006124326022836129fe565b915061243d82612d1a565b604082019050919050565b60006124556018836129fe565b915061246082612d69565b602082019050919050565b6000612478601d836129fe565b915061248382612d92565b602082019050919050565b600061249b601e836129fe565b91506124a682612dbb565b602082019050919050565b60006124be6026836129fe565b91506124c982612de4565b604082019050919050565b60006124e16018836129fe565b91506124ec82612e33565b602082019050919050565b60006125046016836129fe565b915061250f82612e5c565b602082019050919050565b60006125276018836129fe565b915061253282612e85565b602082019050919050565b600061254a6021836129fe565b915061255582612eae565b604082019050919050565b600061256d601a836129fe565b915061257882612efd565b602082019050919050565b60006125906025836129fe565b915061259b82612f26565b604082019050919050565b60006125b36019836129fe565b91506125be82612f75565b602082019050919050565b60006125d66024836129fe565b91506125e182612f9e565b604082019050919050565b60006125f96010836129fe565b915061260482612fed565b602082019050919050565b600061261c6025836129fe565b915061262782613016565b604082019050919050565b600061263f601f836129fe565b915061264a82613065565b602082019050919050565b61265e81612b62565b82525050565b61266d81612b6c565b82525050565b60006020820190506126886000830184612388565b92915050565b60006060820190506126a36000830186612388565b6126b06020830185612388565b6126bd6040830184612655565b949350505050565b60006040820190506126da6000830185612388565b6126e76020830184612655565b9392505050565b60006020820190506127036000830184612397565b92915050565b6000602082019050818103600083015261272381846123a6565b905092915050565b60006020820190508181036000830152612744816123df565b9050919050565b6000602082019050818103600083015261276481612402565b9050919050565b6000602082019050818103600083015261278481612425565b9050919050565b600060208201905081810360008301526127a481612448565b9050919050565b600060208201905081810360008301526127c48161246b565b9050919050565b600060208201905081810360008301526127e48161248e565b9050919050565b60006020820190508181036000830152612804816124b1565b9050919050565b60006020820190508181036000830152612824816124d4565b9050919050565b60006020820190508181036000830152612844816124f7565b9050919050565b600060208201905081810360008301526128648161251a565b9050919050565b600060208201905081810360008301526128848161253d565b9050919050565b600060208201905081810360008301526128a481612560565b9050919050565b600060208201905081810360008301526128c481612583565b9050919050565b600060208201905081810360008301526128e4816125a6565b9050919050565b60006020820190508181036000830152612904816125c9565b9050919050565b60006020820190508181036000830152612924816125ec565b9050919050565b600060208201905081810360008301526129448161260f565b9050919050565b6000602082019050818103600083015261296481612632565b9050919050565b60006020820190506129806000830184612655565b92915050565b600060408201905061299b6000830185612655565b6129a86020830184612388565b9392505050565b60006040820190506129c46000830185612655565b6129d16020830184612655565b9392505050565b60006020820190506129ed6000830184612664565b92915050565b600081519050919050565b600082825260208201905092915050565b6000612a1a82612b62565b9150612a2583612b62565b9250827fffffffffffffffffffffffffffffffffffffffffffffffffffffffffffffffff03821115612a5a57612a59612bde565b5b828201905092915050565b6000612a7082612b62565b9150612a7b83612b62565b925082612a8b57612a8a612c0d565b5b828204905092915050565b6000612aa182612b62565b9150612aac83612b62565b9250817fffffffffffffffffffffffffffffffffffffffffffffffffffffffffffffffff0483118215151615612ae557612ae4612bde565b5b828202905092915050565b6000612afb82612b62565b9150612b0683612b62565b925082821015612b1957612b18612bde565b5b828203905092915050565b6000612b2f82612b42565b9050919050565b60008115159050919050565b600073ffffffffffffffffffffffffffffffffffffffff82169050919050565b6000819050919050565b600060ff82169050919050565b60005b83811015612b97578082015181840152602081019050612b7c565b83811115612ba6576000848401525b50505050565b60006002820490506001821680612bc457607f821691505b60208210811415612bd857612bd7612c3c565b5b50919050565b7f4e487b7100000000000000000000000000000000000000000000000000000000600052601160045260246000fd5b7f4e487b7100000000000000000000000000000000000000000000000000000000600052601260045260246000fd5b7f4e487b7100000000000000000000000000000000000000000000000000000000600052602260045260246000fd5b6000601f19601f8301169050919050565b7f45524332303a207472616e7366657220746f20746865207a65726f206164647260008201527f6573730000000000000000000000000000000000000000000000000000000000602082015250565b7f45524332303a206275726e20616d6f756e7420657863656564732062616c616e60008201527f6365000000000000000000000000000000000000000000000000000000000000602082015250565b7f45524332303a20617070726f766520746f20746865207a65726f20616464726560008201527f7373000000000000000000000000000000000000000000000000000000000000602082015250565b7f696e76616c696420616d6f756e74206f6620746f6b656e730000000000000000600082015250565b7f45524332303a20696e73756666696369656e7420616c6c6f77616e6365000000600082015250565b7f416d6f756e74206f6620736f6c642065746820697320746f6f206c6f772e0000600082015250565b7f45524332303a207472616e7366657220616d6f756e742065786365656473206260008201527f616c616e63650000000000000000000000000000000000000000000000000000602082015250565b7f746f6b656e416d6f756e7420697320746f6f20736d616c6c0000000000000000600082015250565b7f746f6b656e536f6c6420697320746f6f20736d616c6c00000000000000000000600082015250565b7f696e76616c69642065786368616e676520616464726573730000000000000000600082015250565b7f45524332303a206275726e2066726f6d20746865207a65726f2061646472657360008201527f7300000000000000000000000000000000000000000000000000000000000000602082015250565b7f696e73756666696369656e74206f757470757420616d6f756e74000000000000600082015250565b7f45524332303a207472616e736665722066726f6d20746865207a65726f20616460008201527f6472657373000000000000000000000000000000000000000000000000000000602082015250565b7f696e73756666696369656e7420746f6b656e20616d6f756e7400000000000000600082015250565b7f45524332303a20617070726f76652066726f6d20746865207a65726f2061646460008201527f7265737300000000000000000000000000000000000000000000000000000000602082015250565b7f696e76616c696420726573657276657300000000000000000000000000000000600082015250565b7f45524332303a2064656372656173656420616c6c6f77616e63652062656c6f7760008201527f207a65726f000000000000000000000000000000000000000000000000000000602082015250565b7f45524332303a206d696e7420746f20746865207a65726f206164647265737300600082015250565b61309781612b24565b81146130a257600080fd5b50565b6130ae81612b36565b81146130b957600080fd5b50565b6130c581612b62565b81146130d057600080fd5b5056fea2646970667358221220ed0861f3097ff8d4fa3bcd54f7c8c0b3c9af4c3f34b7dab19f6e5d6030c332ca64736f6c63430008040033",
  "linkReferences": {},
  "deployedLinkReferences": {}
}